:100000000C944A000C9469000C9469000C946900EB
:100010000C9469000C9469000C9469000C946900BC
:100020000C9469000C9469000C9469000C946900AC
:100030000C9469000C9469000C9469000C9469009C
:100040000C9469000C9469000C94DB000C9469001A
:100050000C9469000C9469000C9469000C9469007C
:100060000C9469000C9469000C9469000C9469006C
:100070000C9469000C9469000C9469000C9469005C
:100080000C9469000C9469000C9469000C9469004C
:100090000C94690011241FBECFEFD0E1DEBFCDBFAD
:1000A00011E0A0E0B1E0EAE9F4E000E00BBF02C03B
:1000B00007900D92AC31B107D9F711E0ACE1B1E096
:1000C00001C01D92A532B107E1F70E9407020C940E
:1000D0004B020C940000BF92CF92DF92EF92FF92FE
:1000E0000F931F93CF93DF9368ED70E0EB0188814E
:1000F000816088838EE08093E20084E08093E30057
:1001000083E18093E4008FEF8093E5002DEE30E0F3
:10011000F90110824EEEC42ED12CE6011882AFEE0A
:10012000B0E098E1B92EBC9280EFE82EF12C90E37C
:10013000F701908301EF10E0E801188242EF50E0F0
:1001400081E4FA018083E3EFF0E010821092F40082
:100150001092F5001092F6001092F70080E1E9018C
:10016000888380E4E6018883BC92E701988380E875
:10017000E8018883EA01188280E28083EBEDF0E0F9
:100180008081806A8083EEEDF0E0808189608083E9
:10019000F90110828C9180688C93EB0188818260D8
:1001A0008883DF91CF911F910F91FF90EF90DF90A7
:1001B000CF90BF9008951F920F920FB60F920BB67B
:1001C0000F9211248F93EF93FF938091DB008F7D2B
:1001D0008093DB001092ED00E8E0F1E08091FA00FE
:1001E000819381E0E031F807C9F71092ED0080912A
:1001F000EE008F7D8093EE0088E98093EF00809180
:10020000DB0080628093DB0081E080931C01FF9122
:10021000EF918F910F900BBE0F900FBE0F901F901C
:1002200018958091DB008F7D8093DB0080E18093C7
:10023000ED008091EE0086FF16C08091EE008F7B6E
:100240008093EE00E0E0F1E081918093FA0081E09C
:10025000E830F807C9F788E58093EF008091DB006C
:1002600080628093DB000895EF92FF920F931F93BB
:10027000DF93CF93CDB7DEB72C970FB6F894DEBFE0
:100280000FBECDBFE982FA820B831C832D833E8390
:100290004F83588769877A878B879C871092EE00F7
:1002A00080E18093ED0088E18093EF0089819A815D
:1002B000AB81BC81E3E0880F991FAA1FBB1FEA95A1
:1002C000D1F7282F287F2093F000292F3A2F4B2F8A
:1002D00055272093F1009D01442755272093F200D4
:1002E0008B2F9927AA27BB278093F300FE01359611
:1002F0009E01235F3F4F81918093FA00E217F3073D
:10030000D1F78091EF0080648093EF008091EE0040
:1003100086FFFCCF8091EE008F7B8093EE002C96C1
:100320000FB6F894DEBF0FBECDBFCF91DF911F9106
:100330000F91FF90EF900895EF92FF920F931F930C
:10034000DF93CF93CDB7DEB72C970FB6F894DEBF0F
:100350000FBECDBFE982FA820B831C832D833E83BF
:100360004F83588769877A878B879C871092EC0028
:100370001092ED001092EE0080E18093F000109258
:10038000F1001092F2001092F30088EF8093F400D5
:100390008FEF8093F5008093F6008093F7008091B3
:1003A000F40081608093F40080E98093EF008091F5
:1003B000EE0085FFFCCF8091EE008F7D8093EE00F4
:1003C00020E006C08091FA00E35EFE4F80832F5F3D
:1003D000E22FF0E08091EF0090E08F709070E817CE
:1003E000F90784F38091F3008091F2008091F1008D
:1003F0008091F0002C960FB6F894DEBF0FBECDBFF3
:10040000CF91DF911F910F91FF90EF900895CF92C0
:10041000DF92EF92FF920F931F93DF93CF93CDB7AD
:10042000DEB72C970FB6F894DEBF0FBECDBFDE014E
:100430001196E0E1F1E08CE001900D928150E1F73E
:100440000E9446020E946B00819A899A789480915A
:10045000DB0080628093DB0080E9C82E81E0D82E2B
:10046000E980FA800B811C812D813E814F81588566
:1004700069857A858B859C850E94340180E197E2AD
:10048000F6013197F1F70197D9F7EACF559A5698C7
:0A0490005D9A5E9A0895F894FFCF7C
:10049A00010203040506070808070605040302010A
:0C04AA001300B218010307060007000051
:00000001FF
